:020000040000FA
:1000000090050020C10000006716000025160000C2
:10001000FFFFFFFFFFFFFFFFFFFFFFFFFFFFFFFFF0
:10002000FFFFFFFFFFFFFFFFFFFFFFFFF5240000C3
:10003000FFFFFFFFFFFFFFFFA51B0000A926000039
:1000400035010000350100003501000035010000D8
:1000500035010000350100003501000035010000C8
:1000600035010000FFFFFFFF3501000035010000F2
:10007000350100003501000035010000FFFFFFFFE2
:10008000FFFFFFFF350100003501000035010000D2
:10009000350100003501000035010000C1270000D6
:1000A0002128000035010000350100003501000065
:1000B0003501000035010000350100003501000068
:1000C0001D4880471D4880471D4800471D4801695D
:1000D000002908D14169002905D18169002902D18F
:1000E000C169002909D01848C1680901090D002912
:1000F0000ED005290CD006290AD0BFF34F8F134824
:100100001349016013491248C860BFF34F8FFEE7DF
:100110000E4801680E48884200D070470E480F49CB
:1001200001600A480E4901607047FEE7FEE7FEE7FE
:10013000FEE7FEE7FEE70000CD000000B12600006C
:100140006501000000030840800108400000002015
:100150000400FA0500ED00E0008108400100000005
:10016000000000000348854600F076FB0048004789
:10017000E53400009005002030B50B460146002014
:100180002022012409E00D46D5409D4205D31D469D
:100190009540491B2546954040191546521E002D95
:1001A000F1DC30BD70B500242546002801DA0124B9
:1001B0004042002901DA01254942FFF7DDFFAC4248
:1001C00000D04042002C00D0494270BD03460B4392
:1001D0009B0703D009E008C9121F08C0042AFAD2FD
:1001E00003E00B780370401C491C521EF9D2704783
:1001F000D2B201E00270401C491EFBD270470022BF
:10020000F6E710B513460A4604461946FFF7F0FF15
:10021000204610BDF0B507460846584087B0C00FCD
:10022000049048000E46590040084908BC1A88410D
:1002300005D2384631461E4617460B460246580040
:10024000400810434CD0300D039040055900400D3C
:10025000490D0590401A0290402872DA18030121D6
:10026000000B09050843019004980092002805D06E
:100270000199524200208841009201900298402149
:100280000A1A0199009800F0D9F905460C466B4608
:1002900007CB00F0E3F9C0197141039A0E0D00235A
:1002A000D71756401A467A40164344D0049A002A7B
:1002B0002DD0029A012A039A15DC1205C01A914129
:1002C00001263605001C7141D20F059ED20700930E
:1002D000019202962A46234600F021FA07B0F0BDAB
:1002E00038463146FAE71605224A0F46B218C01AB8
:1002F000B74101210905001C4F4100187F411146FB
:1003000018187941E20F10436D19644113E0E207B8
:100310006D0815436408C2071443039A01261205A9
:10032000C01A91413605001C7141CE074008304388
:100330004908C01851412A46234600F0E3F9CDE7A9
:10034000FFE7049801224000C117121A00238B41D5
:1003500004983146C417381AA141EEE730B401249D
:10036000E407634030BC55E730B40124E407614042
:1003700030BC4FE70000E0FFF0B51FB488B00B9928
:100380000998002448400999C00F4900490809917B
:10039000C0070B990090490049080B9109990898EA
:1003A000A64608431CD00B990A98084318D0099810
:1003B00001244000420D4800410D09982405000326
:1003C000000B204309900B980003000B20430B9077
:1003D00050181C494018002201901446104605E0B0
:1003E000002001460DB0F0BD032801DA034600E00D
:1003F00003239C46C11A0AAE0AE05F0008ADED5B1C
:100400004F00F75B7D430027AA187C41491C5B1E07
:100410006145F2DD410004AB5A522104120C0A433B
:10042000240C401C0828DFDB0198029000997046DC
:1004300001910090059B049A0799069800F06FF9C6
:10044000D0E700000DFCFFFFF0B50C465C4085B026
:10045000E40FE40703944C00002664085900944616
:10046000490802460296224321D062460A431ED022
:100470006200570D4A000E032303550D0124024666
:100480002C492405781B1B0B360B401823432643AD
:10049000614600901C46501AB44103D30098401C9A
:1004A000009002E0921800985B41002803DA0020D7
:1004B000014605B0F0BD002001210905074686462A
:1004C00011E064461D46141BB54106D36546521B18
:1004D000B341744607430C43A646CD07400849087C
:1004E000284392185B4105460D43EAD11046184354
:1004F00013D06046194650407140084306D060460C
:10050000101AB34106D20122002306E00022012383
:10051000DB0702E00122D243531000987446010524
:10052000381C6141029C039D0019694100F0EAF802
:10053000BFE70000FD0300000EB5C217C10F504019
:10054000CA0740180021054B0293019200910A4608
:100550000B4600F0E4F803B000BD000033040000D7
:100560000EB505490291002100910A460B46019102
:1005700000F0D5F803B000BD33040000C20FD2076D
:10058000400040080BD0C10D0723DB01C918400211
:100590000905400A1143C208400711437047002073
:1005A00001467047CB0FDB07490010B549080246EA
:1005B0000A4307D00A0D07240903E401090B121BA3
:1005C000002A01DC002010BDC900440F0C43C1000B
:1005D000E018D205801800F054F810BDF0B51FB433
:1005E0000646002082B005464024019100901BE0A1
:1005F000019922460F46304600F040F9049A059BC7
:10060000801A994110D310461946224600F016F878
:10061000361A8F410197224601200021009F00F0E9
:100620000DF838184D4100902046641E0028DFDC8C
:10063000019B00982946324607B0F0BD10B5202A2C
:1006400004DB0146203A9140002010BD9140202358
:100650009C1A0346E3401943904010BD10B5202A70
:1006600006DBCB170846203A1041C1170B4306E0C2
:100670000B461341D0402024A21A9140084319464A
:1006800010BD002904DA401C490001D14008400097
:10069000704770B40024050C05D11024000402D169
:1006A000002921D01124050E01D100020834050FC4
:1006B00001D10001241D850F01D18000A41C002858
:1006C00001DB4000641C002908D020252E1B0D46AC
:1006D000F540A14000D001212943084301061B1B1E
:1006E000000ADB1D02D5002070BC7047DB0518181E
:1006F00080180029F8DA401C4900F5D170BC400888
:100700004000704710B5002B08DA0024401C6141FE
:1007100092185B411A4301D14008400010BDF0B56A
:100720001FB482B005460C0003D0084602F05AF907
:1007300002E002F057F92030024600902146284698
:10074000FFF77CFF049B059A04460F4618431143AC
:10075000084314D0184610431BD0009840210A1AB1
:100760001846059900F08AF805460E46009A059944
:100770000498FFF763FF084305D0012004E02046FA
:10078000394607B0F0BD0020C11705430E432C4386
:10079000374300990E986305401A7905E40A002250
:1007A0000C43FD0A0A3002D500200146E9E70105A5
:1007B000101969410C9C0D9D00196941FFF7A2FFBA
:1007C000DFE770B54B005B0803430BD04B005C0DBB
:1007D000002633466542B341D417AD1AA34102DB6C
:1007E0000020014670BD12053018514170BD000057
:1007F0004A0009030123090B1B0519430A4B10B5D5
:10080000520D9A4202DA0020014610BD064B3433E5
:100810009A4203DC9A1A00F031F810BD034BD2184B
:10082000FFF70CFF10BD0000FF030000CDFBFFFF32
:1008300010B5002904DB0124E40740428C41214625
:10084000002B04DB1C460123DB075242A3419942E3
:1008500000D1904210BD0000064C0125064E05E077
:10086000E36807CC2B430C3C98471034B442F7D3D1
:10087000FFF77CFC784600009846000010B5202A5F
:1008800004DB0846203AD040002110BD0B46D3407F
:10089000D0402024A21A91400843194610BDFEB54D
:1008A00000231A461B1A8A4103DB0020014603B0CD
:1008B000F0BD4A000D0301212D0B0905520D0D431A
:1008C000D10702D100186D41521E5110FF31FF3186
:1008D0000131002704463E46384600970191024602
:1008E000012100200905FFF7C9FFC3197141F8185C
:1008F000324684468E464A4161462846611A9041F6
:1009000004D36046241A954176461F462419009860
:100910006D41401C00903428E1DDF91930467041EA
:10092000091BA84103D20022D243134601E0002252
:10093000134601980105381C7141FFF7E3FEB6E745
:10094000F0B596460A461349C00046180023002514
:10095000FF2098402C46104216D0002001219940DB
:100960008C461146C1406746394206D087000F21A8
:10097000B9400D437146B9400C43401C0828F0D3E0
:100980003068A843204330600833361D082BDEDD75
:10099000F0BD00002020024010B501F0DDFD01F0A7
:1009A00002F900F039F800F033FC00F0CDFF00F060
:1009B000ADFF00F07FFE7D24E40005E009A001F01A
:1009C000EDFF204602F02CFD00F04EFE0028F5D190
:1009D0000AA001F0E3FF002000F0C6FD012000F0B6
:1009E000C3FD10BD4E524632344C303120494E4981
:1009F00054204552524F52210D0A00006E72663249
:100A0000346C303120636F6E666967207375636381
:100A1000657373210D0A000010B500F055F801222E
:100A20000821064800F09AFD01224021044800F008
:100A300095FD012001F0A2FD10BD000000400B401B
:100A400000200B4010B5012001F098FD102001F0AE
:100A500095FD782002F0E4FC00F0ECFDFFF780FD4E
:100A6000034A044BFFF7F0FCFFF79CFD10BD0000AC
:100A7000333333333333F33F70B5114C0022082145
:100A8000204600F06BFD0F4D01224021284600F06A
:100A900023FD00224021284600F060FD022002F0E4
:100AA000E7FC01220821204600F058FD022002F058
:100AB000DFFC00220821204600F050FD70BD000040
:100AC00000400B4000200B4010B503200121002204
:100AD00040048903012300F0B3FC012208211046E1
:100AE000FFF72EFF012240211046FFF729FF104C8F
:100AF00001220821204600F017FD0122082120468E
:100B000000F0F2FC01220821204600F0E5FC094C2F
:100B100001224021204600F007FD0122402120460D
:100B200000F0E2FC01224021204600F0D5FC10BD7F
:100B300000400B4000200B4070B5114C00220821F2
:100B4000204600F00BFD0F4D01224021284600F009
:100B5000C3FC01224021284600F000FD022002F0E3
:100B600087FC01220821204600F0F8FC022002F058
:100B70007FFC00220821204600F0F0FC70BD000040
:100B800000400B4000200B40F8B51F4E07460024E4
:100B900022464021304600F09FFC01224021304691
:100BA00000F0BAFC194E002500220821304600F062
:100BB000D5FC022002F05CFC01220821304600F046
:100BC000CDFC022002F054FC6006040E40210E48C9
:100BD00000F0BFFC002801D0641CE4B2022002F047
:100BE00047FC6D1CEDB2082DDED3002208213046F3
:100BF00000F0B4FC002F03D0FFF73EFF2046F8BD05
:100C0000FFF79AFFFAE7000000200B4000400B407E
:100C1000F8B51C4F054601224021384600F05CFC27
:100C2000194E00220821304600F098FC00240022D2
:100C30000821304600F092FCE80901D0012200E0D2
:100C400000224021384600F089FC6806050E02208B
:100C500002F00EFC01220821304600F07FFC022049
:100C600002F006FC00220821304600F077FC02204A
:100C700002F0FEFB641CE4B2082CD8D3022002F080
:100C8000F7FBF8BD00200B4000400B4070B50E4C48
:100C900001224021204600F061FC0C4D0122082178
:100CA000284600F05BFC022002F0E2FB002240211B
:100CB000204600F053FC022002F0DAFB002208215B
:100CC000284600F04BFC70BD00200B4000400B405C
:100CD00070B5114C01224021204600F0FDFB0F4D64
:100CE00000220821284600F039FC0022402120463D
:100CF00000F034FC022002F0BBFB01220821284650
:100D000000F02CFC022002F0B3FB0122402120461F
:100D100000F024FC70BD000000200B4000400B40A0
:100D200070B51D4D002422460821284600F016FC0F
:100D30001A4E01224021304600F010FC00224021D2
:100D4000304600F0C9FB01224021304600F0E4FBB0
:100D5000012002F08DFB01220821284600F0FEFB55
:100D60000AE0641CE4B2FA2C06D90DA001F016FECC
:100D7000FFF7AEFF012070BD012002F079FB40219A
:100D8000304600F0E6FB0028EBD10022082128467F
:100D900000F0E4FB002070BD00400B4000200B4041
:100DA00042483137353020736C617665206E6F2094
:100DB00061636B210D0A0000F7B50E46074600F08F
:100DC000ACFA3F4CA06100F09BFAE0616189A06938
:100DD000401A21894843C51314202562205E291832
:100DE0001220205EC002FFF7DDF960622818606300
:100DF0000830001138607D21606B4901401A0146BE
:100E00000E22A0634143A25E09134A43D312022279
:100E1000A25E4243D2129A180023E35E9B009B1C01
:100E2000D21892100423E262E35E434358130C236A
:100E30002062E35E594309144018801C80106162EF
:100E4000A0620123E188DB03C0184143C90B216381
:100E5000E069801A1B4A5043D206E063904203D2F5
:100E60004000FFF789F902E0FFF786F94000011220
:100E7000154A49435143154A091442431214626208
:100E800021628918124A20648918091108183060F3
:100E9000FFF752FB00220F4BFFF7D6FA0E4A0F4B1B
:100EA00002F04AFD00220E4BFFF75EFA00220D4BC6
:100EB000FFF762FAFFF776FB02990860FEBD0000BB
:100EC0008402002050C30000DE0B000043E3FFFF5C
:100ED000CF0E0000D0BCF8406C45D9CC955BC83F24
:100EE0000000F03F40A5E54070B5114C0022042100
:100EF000204600F033FB012255022946204600F02F
:100F0000EBFA00222946204600F028FB042002F0DC
:100F1000AFFA01220421204600F020FB042002F059
:100F2000A7FA00220421204600F018FB70BD000043
:100F300000400B4070B50120800400220111012304
:100F400000F07EFA012204210220FFF7F9FC0122C1
:100F5000540221460220FFF7F3FC104D0122042128
:100F6000284600F0E1FA01220421284600F0BCFAEC
:100F700001220421284600F0AFFA0122214628462A
:100F800000F0D2FA01222146284600F0ADFA0122F3
:100F90002146284600F0A0FA70BD000000400B403A
:100FA00070B5114C00220421204600F0D7FA01222E
:100FB00055022946204600F08FFA01222946204694
:100FC00000F0CCFA042002F053FA0122042120465A
:100FD00000F0C4FA042002F04BFA0022042120465B
:100FE00000F0BCFA70BD000000400B40F1B50127D5
:100FF0001E4E00247F0222463946304600F06CFA2D
:1010000001223946304600F087FA002500220421EB
:10101000304600F0A3FA042002F02AFA012204214B
:10102000304600F09BFA042002F022FA6006040E1B
:101030003946304600F08DFA002801D0641CE4B235
:10104000042002F015FA6D1CEDB2082DDED300224B
:101050000421304600F082FA0098002803D0FFF700
:1010600043FF2046F8BDFFF79BFFFAE700400B4027
:10107000F8B501221A4E054657023946304600F0AF
:101080002BFA00220421304600F068FA00240022E6
:101090000421304600F062FAE80901D0012200E0A4
:1010A00000223946304600F059FA6806050E042041
:1010B00002F0DEF901220421304600F04FFA04204C
:1010C00002F0D6F900220421304600F047FA04204D
:1010D00002F0CEF9641CE4B2082CD8D3F8BD0000AD
:1010E00000400B4070B50122104D540221462846A5
:1010F00000F0F2F901222146284600F02FFA0122E1
:101100000421284600F02AFA042002F0B1F9002256
:101110002146284600F022FA042002F0A9F9002214
:101120000421284600F01AFA70BD000000400B4070
:1011300070B50122104D54022146284600F0CCF92A
:1011400000220421284600F009FA00222146284600
:1011500000F004FA042002F08BF901220421284651
:1011600000F0FCF9042002F083F901222146284610
:1011700000F0F4F970BD000000400B4070B51D4D4B
:10118000002422460421284600F0E8F901225602F4
:101190003146284600F0E2F900223146284600F0A8
:1011A0009BF901223146284600F0B6F9012002F0F1
:1011B0005FF901220421284600F0D0F90AE0641CFE
:1011C000E4B2FA2C06D90CA001F0E8FBFFF7B0FF5F
:1011D000012070BD012002F04BF93146284600F095
:1011E000B8F90028EBD100220421284600F0B6F916
:1011F000002070BD00400B40424D5031383020730C
:101200006C617665206E6F2061636B210D0A0000B2
:1012100010B5FFF78FFE00F001F810BD10B5AA2041
:1012200000F04BF8154C2080AC2000F046F86080B0
:10123000AE2000F042F8A080B02000F03EF8E08040
:10124000B22000F03AF82081B42000F036F8608136
:10125000B62000F032F8A081B82000F02EF8E0812E
:10126000BA2000F02AF82082BC2000F026F8608224
:10127000BE2000F022F8A08210BD000084020020F1
:1012800010B50446FFF72EFFEE20FFF7F1FEFFF743
:1012900075FF2046FFF7ECFEFFF770FFFFF722FF18
:1012A000EF20FFF7E5FEFFF769FF0020FFF79EFE46
:1012B0000446FFF73DFF204610BD70B50446FFF71A
:1012C00011FFEE20FFF7D4FEFFF758FF2046FFF78F
:1012D000CFFEFFF753FFFFF705FFEF20FFF7C8FE34
:1012E000FFF74CFF0120FFF781FE04460020FFF7C7
:1012F0007DFE0546FFF71CFF2002401900B270BDBD
:1013000010B53421F42000F015F8052002F088F81B
:10131000F620FFF7D2FF80B210BD10B52E21F420C9
:1013200000F008F8052002F07BF8F620FFF7C5FF73
:1013300080B210BD70B50D460446FFF7D3FEEE2017
:10134000FFF796FEFFF71AFF2046FFF791FEFFF723
:1013500015FF2846FFF78CFEFFF710FFFFF7E8FEAA
:1013600070BD000070B5184D0446686B4607760FD7
:1013700000F02EF815492060330001F04AFB0814F4
:1013800005070714140E1114606000E06160296AFB
:101390006068052909D3400908E00120C003F3E78C
:1013A0007D200002F0E70020EEE7C840A060A96AB7
:1013B0004903490F072902D0C840E06070BD0321EE
:1013C000FEF7DAFEF9E700000080084000127A001C
:1013D0000C490868C869C20F4868400AC007C00FB6
:1013E0000ED00948002A0BD18869C00D0007000FF4
:1013F00000D110208969044A4902890F5043C8402E
:10140000704700000080084000127A001FB54109B3
:101410000A4A89008A1800212E2800D10221C0061C
:10142000C00E1268032383401A40C2405418684615
:10143000FFF798FF029804B0E04010BD38800840E4
:10144000F0B5084F7C6AFD6A3E6B84438D4396433A
:10145000002B02D004430D4316437C62FD623E63C1
:10146000F0BD0000008008403EB521235B02194317
:101470000123FFF7E5FF062210210020FFF760FAA5
:10148000062220210020FFF75BFAE12040020090B5
:10149000FF200130694688800020C88008810C4CFC
:1014A0004881204601F004FA01221146204601F04D
:1014B00041FA01220021204601F049FA0122114699
:1014C000204601F044FA0349A00108603EBD000037
:1014D0000000044000E100E0002A026801D00A4355
:1014E00000E08A4302607047F0B500242546234699
:1014F000CE0706D05E001746B7403C430327B740EF
:101500003D4349085B1C102BF2D34169A94341615B
:10151000416921434161F0BD002A426801D00A437C
:1015200000E08A4342607047002A08D0012A09D0AF
:1015300082688A438260C2688A43C2607047826858
:101540000A43F7E7C2680A43C26082688A4382603E
:101550007047C069084000D001207047002A01D0C0
:101560004162704781627047FEB5064620482049B7
:10157000855D7000891D0C5AC81E805D0290A80010
:10158000891D0F580022009201206946019248559A
:1015900008780121C007C00B49048843694649788F
:1015A0000123C907890B084301218904884369463F
:1015B0008978C907490B084301218903FFF740FFD8
:1015C00021462846029AFFF7BBF9304600F012F890
:1015D000214602223846FFF7A7FF2146012238465E
:1015E000FFF782FF214601223846FFF775FFFEBD57
:1015F0008C430000044A4100515A921F105C800045
:101600000C3210584162704792430000044A410076
:10161000515A921F105C80000C3210588162704742
:1016200092430000024841680029FCD07047000046
:10163000AC00002010B5FFF729FB4720FFF7E8FAC0
:10164000FFF76EFB0120FFF79FFA04460020FFF72B
:101650009BFA2102401884B2FFF73AFB052001F003
:10166000DFFE204610BD70471CB510A003C80090D7
:101670000191062000F040FE05226946302000F06E
:10168000FBF805226946102000F054F80020694656
:101690000A5CA52A03D1401CC0B20528F8D305284E
:1016A00001D001201CBD00201CBD0000A5A5A5A5E2
:1016B000A500000030B50024052001258BB04004B2
:1016C000AD03184901232246FFF7BAFE00F070FE71
:1016D0000794082003940290019404940594012037
:1016E000069409940890009506200F4C0A906946CC
:1016F000204600F0B2FE0121204600F0F0FE01215C
:10170000204600F099FEFF2000F0CEFD00220221CD
:101710000648FFF723FF012204210548FFF71EFFBB
:101720000BB030BD104000000040004000600B4096
:1017300000200B40F8B515460E4604460022042151
:101740000B48FFF70BFF204600F0AEFD07460024D4
:1017500005E0FF2000F0A8FD3055641CE4B2AC4267
:10176000F7D3012204210248FFF7F8FE3846F8BDFE
:1017700000200B4070B50A4C05460022042120468B
:10178000FFF7ECFE284600F08FFDFF2000F08CFDF7
:101790000546012204212046FFF7E0FE284670BDE1
:1017A00000200B4070B5184C05460022022120464F
:1017B000FFF7D4FE05221549302000F05DF81349EB
:1017C0000522491D2A2000F057F80121212000F0B0
:1017D00073F80121222000F06FF81A21242000F074
:1017E0006BF82946252000F067F80F21262000F02D
:1017F00063F80E21202000F05FF80122022120462C
:10180000FFF7ACFE70BD000000600B40D845000043
:1018100070B50546062000F06FFD164C002202212F
:101820002046FFF79BFE20222946A02000F024F846
:10183000012202212046FFF791FE04212046FFF7F6
:1018400088FE0028F9D10720FFF794FF04460146DF
:10185000272000F031F8E00605D5FF21E12000F057
:101860002BF8102070BDA00601D5202070BDFF20F0
:1018700070BD000000600B40F8B516460D460446EA
:10188000002204210B48FFF769FE204600F00CFD02
:101890000746002405E028786D1C00F005FD641C57
:1018A000E4B2B442F7D3012204210248FFF756FE06
:1018B0003846F8BD00200B4070B50B4C0E4605466F
:1018C000002204212046FFF749FE284600F0ECFCE8
:1018D0000546304600F0E8FC012204212046FFF7CF
:1018E0003DFE284670BD000000200B4010B50021D1
:1018F000084600F001F810BD024A114001430248B9
:101900008160704780FFFF1F00ED00E070B500258B
:101910002846B030C0B2002100F020F9002108466E
:1019200000F01CF90021102000F018F9002401211A
:10193000002000F013F9641CE4B2802CF7D36D1C76
:10194000EDB2082DE4D370BD30B500240720012589
:101950008BB00004AD035A4901232246FFF770FD06
:1019600000F0D2FC079408200394029001940494A0
:101970000594012006940994089000950220514C8A
:101980000A906946204600F068FD0121204600F0DB
:10199000A6FD0121204600F04FFD01224A4DD4034F
:1019A00021462846FFF7DAFD642001F039FD0022C8
:1019B00021462846FFF7D2FD642001F031FD0122C7
:1019C00021462846FFF7CAFD0021AE2000F0C6F8E8
:1019D0000021084600F0C2F80021102000F0BEF8F7
:1019E0000021402000F0BAF80021812000F0B6F874
:1019F0000021CF2000F0B2F80021A12000F0AEF8C5
:101A00000021C82000F0AAF80021A62000F0A6F8C6
:101A10000021A82000F0A2F800213F2000F09EF84D
:101A20000021D32000F09AF80021084600F096F833
:101A30000021D52000F092F80021802000F08EF8DF
:101A40000021D92000F08AF80021F12000F086F86A
:101A50000021DA2000F082F80021122000F07EF848
:101A60000021DB2000F07AF80021402000F076F819
:101A70000021202000F072F80021022000F06EF812
:101A800000218D2000F06AF80021142000F066F893
:101A90000021A42000F062F80021A62000F05EF8EA
:101AA0000021AF2000F05AF80021AF2000F056F8D6
:101AB000FFF72CFF0021084600F008F80BB030BDFE
:101AC000204000000040044000000B4010B50446D8
:101AD000B031C8B2002100F041F8200900211030D7
:101AE00000F03CF82007000F01210843002100F01E
:101AF00035F810BD70B5203A0024D5B27F2802D940
:101B00000020891CC9B2491CC9B2FFF7DFFF0620BB
:101B1000454305482D18285D012100F01FF8641C7D
:101B2000E4B2062CF7D370BDB0430000F8B51746F9
:101B30000E46044600250CE031462046FFF7DAFF4A
:101B40000834E4B2782C02D90024B61CF6B26D1C1D
:101B5000EDB27A5D002AEFD1F8BD000070B50F4EEE
:101B60000546002901D0012200E000220121304673
:101B7000FFF7F4FC0A4C002280212046FFF7EEFC20
:101B8000284600F08FFC012280212046FFF7E6FC6A
:101B9000012211463046FFF7E1FC70BD00400B40CA
:101BA00000200B40704710B500F068F8032120209A
:101BB00000F022F810BD10B500F044F9B12000F09B
:101BC00001F900F087F9012000F0B6F804020120C5
:101BD00000F0B2F80419012000F0AEF82402012050
:101BE00000F0AAF800190402002000F0A5F804197A
:101BF00000F04AF9204610BD70B50D46044600F0CD
:101C000021F9B02000F0DEF800F064F9204600F081
:101C1000D9F800F05FF9284600F0D4F800F05AF93E
:101C200000F032F9642001F0FBFB70BD70B50124B7
:101C3000114D2403002221462846FFF78FFC012284
:101C4000560331462846FFF747FC00223146284616
:101C5000FFF784FC022001F00BFC012221462846FC
:101C6000FFF77CFC022001F003FC002221462846FD
:101C7000FFF774FC70BD000000400B4070B5012000
:101C80008004002201110123FFF7DAFB0122140373
:101C900021460220FEF754FE012255032946022068
:101CA000FEF74EFE0F4E012221463046FFF73CFC68
:101CB000012221463046FFF717FC0122214630461B
:101CC000FFF70AFC012229463046FFF72DFC0122CE
:101CD00029463046FFF708FC012229463046FFF727
:101CE000FBFB70BD00400B4070B50124114D240377
:101CF000002221462846FFF731FC012256033146D7
:101D00002846FFF7E9FB012231462846FFF726FC6B
:101D1000022001F0ADFB012221462846FFF71EFC00
:101D2000022001F0A5FB002221462846FFF716FC01
:101D300070BD000000400B40F1B50126204F00248B
:101D40007603224631463846FFF7C6FB012231466C
:101D50003846FFF7E1FB3E46002501273F030022FE
:101D600039463046FFF7FAFB022001F081FB0122E1
:101D700039463046FFF7F2FB022001F079FB60069E
:101D8000040E012149033046FFF7E3FB002801D090
:101D9000641CE4B2022001F06BFB6D1CEDB2082D57
:101DA000DDD3002239463046FFF7D8FB00980028E3
:101DB00003D0FFF73BFF2046F8BDFFF795FFFAE79A
:101DC00000400B40F8B51E4E054601225103304637
:101DD000FFF782FB0121002209033046FFF7BEFB1B
:101DE000002401273F03002239463046FFF7B6FBA7
:101DF000E80901D0012200E0002201214903304618
:101E0000FFF7ACFB6806050E022001F031FB012252
:101E100039463046FFF7A2FB022001F029FB0022E1
:101E200039463046FFF79AFB022001F021FB641C83
:101E3000E4B2082CD7D3022001F01AFBF8BD000051
:101E400000400B4070B501220E4D54032146284638
:101E5000FFF784FB0122160331462846FFF77EFB7D
:101E6000022001F005FB002221462846FFF776FB01
:101E7000022001F0FDFA002231462846FFF76EFBF2
:101E800070BD000000400B4070B50122104D54039E
:101E900021462846FFF720FB6610002231462846DF
:101EA000FFF75CFB002221462846FFF757FB022084
:101EB00001F0DEFA012231462846FFF74FFB0220EF
:101EC00001F0D6FA012221462846FFF747FB70BDF4
:101ED00000400B40F8B501271D4D00243F0322466A
:101EE00039462846FFF73AFB012256033146284679
:101EF000FFF734FB002231462846FFF7EDFA0122B6
:101F000031462846FFF708FB012001F0B1FA012213
:101F100039462846FFF722FB0AE0641CE4B2FA2C9B
:101F200006D90CA000F03AFDFFF7AEFF0120F8BD86
:101F3000012001F09DFA31462846FFF70AFB0028F0
:101F4000EBD1002239462846FFF708FB0020F8BDF8
:101F500000400B40534750333020736C617665204E
:101F60006E6F2061636B210D0A00000070B5FF24C5
:101F7000114D0134002221462846FFF7EFFA0122D5
:101F8000560231462846FFF7A7FA00223146284676
:101F9000FFF7E4FA022001F06BFA012221462846FD
:101FA000FFF7DCFA022001F063FA002221462846FE
:101FB000FFF7D4FA70BD000000000B4070B501209F
:101FC0000004002281100123FFF73AFA01221402D3
:101FD00021460020FEF7B4FC0122550229460020CC
:101FE000FEF7AEFC0F4E012221463046FFF79CFA69
:101FF000012221463046FFF777FA0122214630467A
:10200000FFF76AFA012229463046FFF78DFA0122CE
:1020100029463046FFF768FA012229463046FFF785
:102020005BFA70BD00000B4070B5FF24114D013408
:10203000002221462846FFF791FA01225602314636
:102040002846FFF749FA012231462846FFF786FA6B
:10205000022001F00DFA012221462846FFF77EFA00
:10206000022001F005FA002221462846FFF776FA01
:1020700070BD000000000B40F1B50126204F002488
:102080007602224631463846FFF726FA01223146CB
:102090003846FFF741FA00253E46BF150022394673
:1020A0003046FFF75BFA022001F0E2F901223946DF
:1020B0003046FFF753FA022001F0DAF96006040E09
:1020C000012149023046FFF744FA002801D0641C80
:1020D000E4B2022001F0CCF96D1CEDB2082DDDD385
:1020E000002239463046FFF739FA0098002803D01D
:1020F000FFF73CFF2046F8BDFFF796FFFAE7000028
:1021000000000B40F8B51D4E054601225102304635
:10211000FFF7E2F90022B1153046FFF71FFA00245D
:10212000B715002239463046FFF718FAE80901D002
:10213000012200E00022012149023046FFF70EFA99
:102140006806050E022001F093F901223946304657
:10215000FFF704FA022001F08BF9002239463046DD
:10216000FFF7FCF9022001F083F9641CE4B2082CAB
:10217000D7D3022001F07CF9F8BD000000000B402D
:1021800070B501220E4D540221462846FFF7E6F9AC
:102190000122160231462846FFF7E0F9022001F03D
:1021A00067F9002221462846FFF7D8F9022001F0FE
:1021B0005FF9002231462846FFF7D0F970BD0000D4
:1021C00000000B4070B50122104D540221462846F4
:1021D000FFF782F96610002231462846FFF7BEF964
:1021E000002221462846FFF7B9F9022001F040F904
:1021F000012231462846FFF7B1F9022001F038F9F3
:10220000012221462846FFF7A9F970BD00000B40C6
:10221000F8B5FF271D4D00240137224639462846D0
:10222000FFF79CF90122560231462846FFF796F93E
:10223000002231462846FFF74FF901223146284651
:10224000FFF76AF9012001F013F901223946284607
:10225000FFF784F90AE0641CE4B2FA2C06D90CA05A
:1022600000F09CFBFFF7AEFF0120F8BD012001F05C
:10227000FFF831462846FFF76CF90028EBD1002221
:1022800039462846FFF76AF90020F8BD00000B40E8
:10229000534854333120736C617665206E6F206132
:1022A000636B210D0A00000070B506460024114D35
:1022B00003E0641CE4B2C82C0FD80121284600F0CA
:1022C000C5F80028F5D03146284600F011F9002461
:1022D00005E0641CE4B2C82C01D9002070BD0421C3
:1022E000284600F0B3F80028F3D0284600F0F4F8B0
:1022F000C0B270BD0040004040080249401EC860A6
:10230000704700000040004070B5052220210220E7
:10231000FEF716FBFF21052201310220FEF710FB1C
:10232000012280210220FEF70BFB0122D40321466B
:102330000020FEF705FB012211460220FEF700FBFC
:10234000184D022280212846FFF7EEF80122802155
:102350002846FFF7C9F8012280212846FFF7BCF87C
:10236000114D022221462846FFF7DEF801222146C0
:102370002846FFF7B9F8012221462846FFF7ACF8B6
:102380000A4C022201212046FFF7CEF80122114615
:102390002046FFF7A9F8012211462046FFF79CF8D6
:1023A00070BD000000200B4000000B4000400B40BF
:1023B00070B5052208210120FEF7C2FA052210217E
:1023C0000120FEF7BDFA052220210120FEF7B8FA10
:1023D000012202210320FEF7B3FA01220421104654
:1023E000FEF7AEFA012204210320FEF7A9FA104CF1
:1023F000022211462046FFF797F8012202212046CB
:10240000FFF76AF80B4D022204212846FFF78CF8EB
:10241000012204212846FFF75FF80022042120460C
:10242000FFF75AF8012204212046FFF775F870BD26
:1024300000600B4000200B400029016802D00122FF
:10244000114301E0490849000160704702465269A2
:1024500000200A4200D00120704730B54C698B69DA
:10246000002C1AD001225202DA4022438C680B68F9
:102470000D692343CC682C432343CC692343134386
:1024800043604B6A4A681A430B6A1B011A43826114
:10249000896A4908491EC16030BDFF2201329A4055
:1024A000E4E7000070B50B4C054601212046FFF71C
:1024B000CDFF0028F9D02946204600F019F8042164
:1024C0002046FFF7C3FF0028F9D0204600F004F8AB
:1024D00070BD000000400440006980B270470822CF
:1024E0000029016801D0114300E091430160704769
:1024F00001617047704700000422044904280869FC
:1025000002D09043086170471043FBE700E000E011
:102510000749002806D00128086906D04008400075
:102520000861704700208861704701221043F7E777
:1025300000E000E0044902220028086901D01043AD
:1025400000E090430861704700E000E00149486105
:102550007047000000E000E010B5FFF72FFD064CCB
:10256000012211022046FEF7F9FF01225102204606
:10257000FEF7F4FF10BD000000000B4010B504464C
:10258000FEF784FB4620FEF743FBFEF7C9FB20461F
:10259000FEF73EFBFEF7C4FBFEF79AFB10BD000002
:1025A0007CB50446FFF7ECFD6400E0B2FFF7AAFD3E
:1025B000FFF72EFE2C20FFF7A5FDFFF729FE0620D2
:1025C000FFF7A0FDFFF724FEFFF7FCFD322000F02F
:1025D00027FFFFF7D5FD641CE0B2FFF793FDFFF77F
:1025E00017FE00281FD10120FFF746FD694608703D
:1025F0000120FFF741FD694648700120FFF73CFDCF
:10260000694688700120FFF737FD6946087101208F
:10261000FFF732FD694648710020FFF72DFD69463E
:102620008871FFF7CFFD68468278022101F044FEF1
:10263000002802D16846008846BA6846827902219D
:1026400001A801F039FE002802D16846808845BA09
:102650003046FDF785FF00220E4BFDF78DFE0E4E36
:1026600000223346FDF7F0FE00220C4BFDF776FE0C
:102670000B4C03C42846083CFDF772FF0022094BAF
:10268000FDF77AFE00223346FDF7DEFE083403C470
:102690007CBD000000E06540E0FFEF400080464068
:1026A000C00000200000594010B500F07FF810BDB8
:1026B000F0B539491020C860384A01201060384907
:1026C000086B402528430863364800234415866874
:1026D000272EFCD100E044604668B605FBD500E03B
:1026E00043604668B605FBD41360486A0322920231
:1026F0009043486248680122D202104348608868CB
:10270000C008C007FBD04868C008C000C01C4860B3
:10271000486B4007400F0328FAD1234A1068C008CD
:10272000C000401C10600B624868A0434860086805
:102730009615304308604868171538434860886824
:102740008008C007FBD0086BA84308630868B04343
:102750000860032000068861486820434860886854
:102760004008C007FBD01068C008C000801C106083
:102770000B624868C008C000401C4860486B4007B6
:10278000400F0128FAD1106810210843106010682A
:10279000090208431060F0BD008108400083084032
:1027A0000080084000A1064000020840034801687C
:1027B000002902D00168491E01607047B80000205E
:1027C00070B520214C06204600F06CF800280ED091
:1027D000204600F0B7F8104AC1B21088030406D4AE
:1027E00044040023002C06DA0A2901D0138070BDAE
:1027F0000121C9030DE00D2909D08404A40C074D63
:10280000401C80B229551080C728EFD870BD012127
:1028100089030843108070BDD0000020C80200204A
:1028200070B51B4D2021284600F03CF800281AD036
:10283000284600F087F8C4B2284600F083F816490D
:10284000144A0B68D0540868401C4006400E0860CB
:1028500012490888020406D443040022002B06DA39
:102860000A2C01D00A8070BD0122D2030DE00D2C8C
:1028700009D083049B0C0A4D401C80B2EC540880A4
:10288000C728EFD870BD012292031043088070BDA5
:10289000000004403C010020AC000020BC000020EF
:1028A000BC0100200069084000D0012070470000F2
:1028B00070B504460D46C88889886268084329892E
:1028C000184B1A401143084369890843606001208E
:1028D0008007844206D11820FEF798FD2968FDF78D
:1028E0004BFC60621048844206D11A20FEF78EFD30
:1028F0002968FDF741FC60620C48844206D11C2027
:10290000FEF784FD2968FDF737FC606208488442C1
:1029100006D11E20FEF77AFD2968FDF72DFC6062C6
:1029200070BD0000FCE0FFFF00000440001000400C
:1029300000100440002AC26801D00A4300E08A4324
:10294000C2607047006880B2704701607047102312
:102950008B404168002A01D0194300E0994341604F
:10296000704770B50D460646002404E0304600F07E
:1029700007F8641CE4B2295D0029F7D170BD00009E
:1029800010B5054C2046FFF7E0FF80212046FFF7F9
:1029900089FF0028F9D010BD000004400FB410B525
:1029A00003A9044B044A029800F098F910BC08BC33
:1029B00004B01847C1340000D40000200FB410B593
:1029C00004A9074B02AA039800F088F9044602A95B
:1029D000002000F01FFD204610BC08BC04B01847C2
:1029E000153400002021020C01D010211046020AEB
:1029F00001D010460839020901D01046091F82088B
:102A000001D01046891E420801D0881E7047081A5E
:102A1000704730B47446641E2578641CAB4200D203
:102A20001D46635D5B00E31830BC18474900CA02CD
:102A30000243100000D004204A0D01D001221043AF
:102A4000044A490D914201D102210843012800D1D5
:102A500005207047FF070000F8B504464F1EC80068
:102A60000838211815461E46086849683A46062364
:102A70009A4310D02A463346FDF77EFC3A46D200F0
:102A8000083AA3181A687F1E5B68FDF7C3FB06228D
:102A90003B469343EED1022F23D0042F11D0062FB3
:102AA0002FD12A463346FDF767FCE36AA26AFDF799
:102AB000B1FB2A463346FDF75FFC636A226AFDF7E5
:102AC000A9FB2A463346FDF757FCE369A269FDF7E7
:102AD000A1FB2A463346FDF74FFC63692269FDF7E7
:102AE00099FB2A463346FDF747FCE368A268FDF7E9
:102AF00091FB2A463346FDF73FFC63682268FDF7E9
:102B000089FBF8BD002210B5134610460149FDF7B8
:102B10009BFC10BD0000F03F10B5FDF77BFB10BD26
:102B2000002210B5134610461146FDF78DFC10BD6E
:102B300010B50721024A00200907FDF742FE10BD2B
:102B400001030000034A10B500201107FDF739FE0C
:102B500010BD000001FDFFFF02E008C8121F08C100
:102B6000002AFAD170477047002001E001C1121F0E
:102B7000002AFBD17047000001490860704700003F
:102B8000D8000020F0B51FB484B007980699020D54
:102B9000014314D04A484B491018484305140F9874
:102BA00001280E981CD0281A401C0024464E474984
:102BB000009401910290002814DA474227E00F9810
:102BC000012443A3012808D0002104980F9A8460AF
:102BD0000360C260416009B0F0BD0E98C143F4E7E4
:102BE0004042E2E7074612E0F80707D022463346A4
:102BF00001990098FDF7C0FB0191009022463346F1
:102C000010461946FDF7B8FB04460E467F10002F0C
:102C1000EAD10298019B0028009A0799069802DAE7
:102C2000FDF7AAFB01E0FDF70FFC04460E4600226B
:102C3000284BFDF7FDFD03D80020C043014607E007
:102C40000022254B20463146FDF7E4FAFDF7D0FD82
:102C5000102409E0002C0ADB0A220023FDF7BEFC49
:102C6000059B30321A55641E02460A43F2D11122E6
:102C7000641C059B121B1C190F9B012B03D0012305
:102C800008430ED10AE0084304D011200E90002022
:102C90000F9084E70E98151A6D1E0BE00E98824275
:102CA00002DD00236D1C03E0824201DA00236D1E69
:102CB000002BEED004980F998260C16030C08AE783
:102CC00001FCFFFF104D0000000024400000F03F19
:102CD000300000000000F0430000E03FFFB597B077
:102CE0000646002518E2252877D100242746FD490D
:102CF000049400E00443761C32780120203A90408E
:102D00000842F7D130782A280ED0022230780146C6
:102D10003039092916D804990A2359433039401803
:102D20001443761C0490F1E7189802C80491189097
:102D3000002904DA012040030443484204900220A1
:102D40000443761C30782E2814D104200443707874
:102D5000761C2A2809D11898761C80C8189009E09A
:102D60000A214F43303FC719761C3078014630396D
:102D70000929F5D930786C2810D006DC4C281AD0F7
:102D800068280ED06A2817D104E0742813D07A2856
:102D900012D110E00120400504430CE00121090597
:102DA00001E0032109050C437178814203D1012020
:102DB00000052418761C761C3078119066280BD0FC
:102DC00013DC58287DD009DC00287BD04528F6D0BC
:102DD0004628F4D047281AD1A5E118E0632835D059
:102DE000642870D0652812D19DE170286CD008DC71
:102DF0006728F1D069287BD06E280DD06F2806D1C6
:102E0000BAE073282ED0752871D0782859D01A9A34
:102E1000199990476D1C7EE16002400F022809D08D
:102E200003280DD00428189801680DD00D60001DEE
:102E3000189070E11898EA1701680D604A60F6E78B
:102E4000189801680D80F2E70D70F0E718986A464F
:102E500001781172001D18900020507202A8009095
:102E6000012005E0189802C8189000200091C04386
:102E700061070DD5002101E00199491C0191B9427A
:102E800012DA8142F8DB009A515C0029F4D10BE0A0
:102E9000002101E00199491C01918142FADB019A6C
:102EA0000099895C0029F5D1019904981A9B471A69
:102EB00021463846199A00F097FA019940194518A9
:102EC0000BE04FE02CE113E04EE000980099007811
:102ED000491C00911A9A199990470198401E019037
:102EE000401CF2D1214638461A9B199A10E137E06E
:102EF0000A200021009001916002410F022907D0B1
:102F0000189A01CA1892C2179446032908D00AE0F9
:102F10001898C01DC108C90005C91891944607E05A
:102F200000B2C2179446042902D140B2C1178C46A0
:102F300000226146944506DA0A460021404291414A
:102F40008C462D2102E0210504D52B216A46117300
:102F5000012103E0E10701D02021F7E7029155E0CC
:102F60000A200AE0102008E0102000900021042030
:102F700004430191082703E00820002101910090FB
:102F80006002410F022907D0189A01CA1892002244
:102F90009446032908D008E01898C01DC108C9004C
:102FA00005C91891944603E080B2042900D1C0B24B
:102FB00000210291210729D51199702906D0009A84
:102FC0001021019B4A401A4305D00EE040216A4679
:102FD0001173012108E06146014306D030216A46A1
:102FE00011731199517302210291009A0821019BDA
:102FF0004A401A430AD16146014301D1610705D510
:1030000030216A46117301217F1E029111995829BE
:1030100004D035A10E910DA90D910DE037A1F9E76E
:103020006146019B009AFDF7D9FA0E9B8C469B5C8A
:103030000D9A521E0D92137061460143F0D10D9806
:1030400005A9081A20300190600703D5012000046B
:10305000844300E001270198874201DD381A00E02F
:103060000020019900904118029809180498401A0C
:103070000490E00306D421461A9B199A049800F0A4
:10308000B3F94519002706E003A81A9AC05D1999FB
:1030900090476D1C7F1C02988742F5DBE0030CD53E
:1030A00021461A9B199A049800F09EF9451904E0EC
:1030B0001A9A3020199990476D1C0099481E00906B
:1030C0000029F5DC08E00D980D990078491C0D9158
:1030D0001A9A199990476D1C0199481E0190002970
:1030E000F1DC63E109280100303132333435363701
:1030F0003839616263646566000000003031323344
:1031000034353637383941424344454600000000E3
:1031100000F05AF94519761C3078002800D0E2E515
:1031200028461BB0F0BD600700D406271898C01DC4
:10313000C108C90048680A680831C30FDB07189145
:10314000190001D09CA108E0210501D59BA104E054
:10315000E10701D09AA100E09AA1430011985B0811
:10316000109165280CD006DC452809D046281DD0D2
:10317000472841D141E0662818D067283CD13CE07F
:103180000021112F01DB112000E0781C019100903B
:1031900008A911A8FFF7F6FC139905910021119ACF
:1031A00015927F1C12980197009150E00120C007F2
:1031B00003900120019008A9009711A8FFF7E2FCF5
:1031C000139A149905920022119B0092129815935C
:1031D000059A0192002901D0104602E0791C40189E
:1031E0000190381A01D5019804E04042401E009039
:1031F000781C0190C01B029043E0012F00DA0127E8
:103200000021112F01DD112000E0384601910090CE
:1032100008A911A8FFF7B6FC13990591119A00218E
:10322000129815920091019721070CD40599B94283
:1032300001DB019900E00191012904DD159A491E85
:10324000515C302906D0B84201DA011D05DA0121AE
:10325000029115E00199491EEDE7002805DC00996F
:10326000411800910199091A03E0019A411C914209
:1032700000DD01910099401A401C02900120C00716
:103280000390200706D402990198814202DB0020B6
:10329000C043029000206946C87707AF0121039818
:1032A0000337C907884224D0022011902B201290A6
:1032B000039800280CDA404203902D20129007E07A
:1032C0000A210398FCF758FF30317F1E03903970B4
:1032D0001199481E11900029F2DC03980028EFD1C3
:1032E000791E129808703078202108404530BF1EA2
:1032F000387006A8C01BC01D0390109800780028E5
:1033000000D00120019941180298C01709180398AC
:1033100009180498401A401E0490E00306D4214680
:103320001A9B199A049800F05FF8451910980078D4
:10333000002803D01A9A199990476D1CE00324D5F0
:1033400021461A9B199A049800F04EF845191CE082
:103350000098002807DB00990598884203DD15983E
:10336000405C199901E0199930201A9A9047009809
:103370006D1C401C00900298401E0290002804D151
:103380001A9A2E20199990476D1C0199481E019098
:103390000029DDDC05E038781A9A7F1C19999047DE
:1033A0006D1C0399481E03900029F4DC21461A9BEA
:1033B000199A0498ACE600002D0000002B000000D4
:1033C0002000000000000000F8B5044600251E465D
:1033D0001746880404D405E039462020B0476D1C08
:1033E000641EF9D52846F8BDFFB50446002581B016
:1033F0001E46C80301D5302700E02027880404D5E5
:1034000005E038460399B0476D1C641EF9D528467F
:1034100005B0F0BD0A68531C0B60107070470000C7
:1034200010B504460420C043FFF766F80E487D211E
:1034300089010068FCF7A0FEFFF788F80120FFF77C
:1034400079F80020FFF764F80120FFF761F80748DA
:10345000046001680029FCD1881EFFF759F800209C
:10346000FFF756F810BD0000B4000020B80000209F
:1034700010B504460420C043FFF73EF80E480D493E
:103480000068FCF779FEFFF761F80120FFF752F8BA
:103490000020FFF73DF80120FFF73AF807480460E5
:1034A00001680029FCD1881EFFF732F80020FFF7E1
:1034B0002FF810BD00127A00B4000020B8000020E0
:1034C00070B5074D0446C1B22846FFF73EFA802189
:1034D0002846FFF7E7F90028F9D0204670BD000024
:1034E000000004401FB5FDF7BFFFB3484E21016047
:1034F0000A46B249B248FCF769FEB149B148FFF744
:1035000030FAFEF7F3F9FDF747FAAF4C8021AC48EB
:10351000FCF775FEAD4D28680F280DD30F22AC497E
:10352000A748FCF753FE00202860A3480F21016044
:10353000A349A448FFF715FA4420FFF731F8A5493D
:1035400003C9FDF72FF80746E060A3480268416809
:103550001046FDF727F82061FDF710F805460E46E6
:103560003846FDF70BF802460B469CA001960095E5
:10357000FFF714FA08212020FEF73EFBFEF71BFBA5
:10358000020C206281B2A280E1809BA0FFF706FAC4
:10359000FDF758FA6062FCF7F1FF02460B469DA06A
:1035A000FFF7FCF9D020FDF76BFE874A20701C3234
:1035B000111F081FFDF700FCE069FCF7DFFF05465F
:1035C0000E460A216069FCF7EDFD0246039602955E
:1035D000A06900900B46217893A0FFF7DFF9002146
:1035E000A1A20846FEF7A2FA2021A448FCF707FE94
:1035F000E068FCF7C3FF02460B46A1A19F48FFF716
:10360000DDF99E4A01210020FEF790FA20219B4817
:10361000FCF7F5FD2069FCF7B1FF02460B469CA1C3
:103620009648FFF7CBF9954A02210020FEF77EFA73
:1036300020219248FCF7E3FDE28899A18F48FFF72B
:10364000BDF98E4A03210020FEF770FA20218B4835
:10365000FCF7D5FDA28896A18848FFF7AFF9874A05
:1036600004210020FEF762FA20218448FCF7C7FD00
:10367000606AFCF783FF02460B4691A17F48FFF783
:103680009DF97E4A05210020FEF750FA20217B4853
:10369000FCF7B5FD8EA17948A269FFF78FF9774A4B
:1036A00006210020FEF742FA5020FEF77BF873480F
:1036B00020212030FCF7A3FD704820214030FCF78A
:1036C0009EFD2069FCF75AFF05460E46E068FCF7B0
:1036D00055FF0246E088029068480B4680A101969B
:1036E00000952030FFF76AF9606AFCF747FF6B46E8
:1036F000A26907C36148A2887FA14030FFF75EF945
:103700005E4820300078002830D05C484030007897
:1037100000282BD07EA0FFF741F958482030FEF753
:1037200077F8202807D16078401CC0B260700A2862
:1037300001D9002060701420FFF772FE4F4840301E
:10374000FEF766F8002807D0A078401CC0B2A07031
:103750000A2801D90020A070484820212030FCF719
:103760004EFD464820214030FCF749FDA168481C29
:10377000A0606CA0FFF712F90020FDF747FF0120C1
:10378000FDF744FFFA20FFF74BFE0120FDF732FF63
:10379000684D2846FFF76CFE0120FDF737FF00203B
:1037A000FDF728FF2846FFF763FE0120FDF722FF03
:1037B000FA20FFF735FEA9E6A80000203C430000F0
:1037C000280000200000044000000020AC00002081
:1037D0003C010020C0000020C800002074656D700E
:1037E0003A2025322E31662068756D693A202532DF
:1037F0002E31660D0A00000054564F433A256420CE
:103800005070622C636F323A25642050706D0D0A3F
:10381000000000006C696768743A25362E31662016
:103820006C780D0A0000000049443A202564092004
:103830002074656D703A20256C642E256C642043DD
:1038400009202050726573737572653A20256C6487
:1038500050610920416C7469747564653A20252EA5
:103860003166206D0D0A0000302E393627204F4C6E
:10387000454420544553542100000000DC00002042
:1038800074656D703A25352E3166204300000000C6
:1038900068756D693A25352E3166202525000000B2
:1038A00054564F433A253464205070622000000083
:1038B000436F323A2535642050706D2000000000BF
:1038C0006C696768743A25372E3166206C78000081
:1038D00050723A20202025376C642050610000008F
:1038E00023743A25352E316623683A25352E316604
:1038F00023543A253464000023433A253564236C6D
:103900003A25372E316623703A25376C6400000063
:103910006E7266B7A2CBCDCAFDBEDDD6D02E2E2EDE
:103920000D0A0000636F756E743A256420730D0AEA
:103930000D0A000090D00300F0B51FB494B0844687
:103940000C460246179F16980290490078006300C3
:10395000490840080493002A01D0012500E0002511
:10396000FE4A5D19AD1853109D422CD37D00029E76
:103970000195002E00D00126AE19F94BB5189D42D5
:1039800021D3029B0246F74D1A430BD02A4694429C
:1039900002D16246002A05D06246049B002A05D067
:1039A000012504E00020294619B0F0BD00255D196D
:1039B000ED4B9D4207D8029E019D002E00D00126AE
:1039C000AD199D4207D93B4660462146169AFFF73E
:1039D000A3F819B0F0BD0025002C28DAE34B98427B
:1039E00025DAE34B984201DB022520E0DD4B9842CB
:1039F0001DDBE04B060DF318142B09DD3426F61AF7
:103A0000029BF3401A46B340029EB3420BD00EE035
:103A1000029E002E0BD11426F61A0346F3401A46D6
:103A2000B340834203D1D507ED0F02235D1B6246ED
:103A30000B46134318D1002F16DA002C03D0022DA9
:103A400001D0012D06D00220FFF796F8FFF75AF8B3
:103A500019B0F0BD0220FFF78FF8FFF753F80122ED
:103A6000D207514019B0F0BD029B002B62D1BF4B71
:103A7000984220D1C048844201D1100008D0B948F2
:103A8000814209DB002F10DB1698394619B0F0BDD2
:103A90000020B44919B0F0BD002F06DA01223946E2
:103AA000D2071698514019B0F0BDB449794408685E
:103AB000496819B0F0BDAB4EB04226D1002F22DAD2
:103AC000002904D0994211D1100008D010E0100054
:103AD00072D1A649E20FD207114319B0F0BD002000
:103AE000E20F0146D207114319B0F0BD994203DB42
:103AF0006046214619B0F0BD234600203146FCF750
:103B0000A3FC19B0F0BD1046F3E7994212DA012385
:103B10009B079F4203D1234610461946C6E3984BA4
:103B20009F4207D1221E05DB6046114600F0E2FBF2
:103B300019B0F0BD630066465B0832002BD1002946
:103B400007D08A4A914226D1002C0BDD002F0FDAD4
:103B500018E0022D16D0002C14D0012D12D1002C0B
:103B600014DB0FE0002C16DA002F09DB012D03D047
:103B700000207E4919B0F0BD0020824919B0F0BD87
:103B8000012D03D00020014619B0F0BD0020012115
:103B9000C90719B0F0BDE217521C0D922A430CD090
:103BA000794A90427EDD794B794A984212DD914202
:103BB0000ADC002F18DB20E049E20120FEF7DCFFE1
:103BC000FEF7AEFF19B0F0BD6648814202DB002F60
:103BD0000ADC12E0914202DA002F05DB0DE0614BB6
:103BE000994213DD002F08DD0220FEF7C5FFFEF726
:103BF0009FFF4900490800223FE20220FEF7BCFF78
:103C0000FEF7A0FF49004908002236E20022604684
:103C10002146FCF7A3FB012204460E46D243FCF7E3
:103C2000D0FD5C4A5C4BFCF79FFB22463346FCF719
:103C3000A3FB0022524BFCF797FB07462246334674
:103C4000039110461946FCF797FB3A46039BFCF795
:103C500093FB074603220B915207504B20463146F7
:103C6000FCF78AFB01910A904D4A4C4B38460B9960
:103C7000FCF782FB074602914A4A4B4B20463146ED
:103C8000FCF77AFB3A46029BFCF768FB04460B46BE
:103C90000246079101990A98FCF7BCFA00260F46E4
:103CA000304600E009E0019B0A9AFCF757FB2246E8
:103CB000079BFCF759FB0B4681E1012400202405FA
:103CC000A14207DA352230461946FCF77AFD06464E
:103CD0003420C0430A151218264810180390080310
:103CE000000B204907460F433049884201DC002081
:103CF00003E02F49884202DA0120119005E00020FC
:103D000011900398401C3F1B03900297119839466D
:103D1000C2002848784480180F92436802683046F1
:103D20000B930092FCF71AFB01910A9030460B9B13
:103D3000009A0299FCF76EFA02460B4600200949E8
:103D4000FCF782FB07910490019B0A9AFCF714FB95
:103D50000591002409910C902EE00000FFFF1F0048
:103D6000FFFF0F000000F03F0000E0FF0000F07FC9
:103D70000000404301FCFFFF0000F0BFC00B00004B
:103D80000000E03F0000F0FF0000E0410000F043D1
:103D9000FFFFEF3F555555555555D53F4715F73F53
:103DA000FE822B6544DF5DF80BAE543E8E98030017
:103DB0007AB60B00D0080000FE48784400680E90E8
:103DC000012178104907084311990B9B8904401879
:103DD0000121C90447183946009A0E98FCF7BEFA2B
:103DE0003246029BFCF7C0FA02460B462046099970
:103DF000FCF7C2FA064600913B4620460E9A099906
:103E0000FCF7BAFA019B0A9AFCF7AEFA3246009B1D
:103E1000FCF7A4FA079B049AFCF7AEFA0B910599FC
:103E20000C9A12900B461046FCF7A6FA064602467C
:103E3000E1480F460B4606217844FEF70DFE324658
:103E40003B460191049010461946FCF795FA019BF8
:103E5000049AFCF791FA06460F462046059B0C9AF9
:103E60000999FCF7D7F90B9B129AFCF785FA3246B1
:103E70003B46FCF7CFF901910490099922460B4685
:103E80001046FCF779FACD4E00223346029100909D
:103E9000FCF7C0F9019B049AFCF7BCF922463346B3
:103EA00020460691FCF75AFA029B009AFCF756FA54
:103EB000019B049AFCF758FA0646029122461046E6
:103EC000069B0999FCF758FA074601913046059B75
:103ED0000C9A0299FCF750FA064604912246069B7A
:103EE0000B991298FCF748FA3246049BFCF792F9BA
:103EF00002460B460791049038460199FCF78AF96F
:103F000000200E4604463A46019BFCF727FA079B21
:103F1000049AFCF729FA074607220B915207A84B8F
:103F200020463146FCF728FA05910A90A54AA44B91
:103F300038460B99FCF720FA07460091A24AA34B9A
:103F400020463146FCF718FA3A46009BFCF762F926
:103F50009F4B7B440F9A9B181A685B68FCF75AF9D1
:103F600002900B910398FCF7E7FA079104900B9BE2
:103F7000029A05990A98FCF74DF9964B7B440F9AE3
:103F80009B181A685B6801930C92FCF743F9079B36
:103F9000049AFCF73FF900260F463046079B049A27
:103FA000FCF7DCF9019B0C9AFCF7D8F9059B0A9AFF
:103FB000FCF7D4F90B9B029AFCF7D6F90B460021CB
:103FC0000C910D99844C6D1E294301D1834C0C91A9
:103FD00017990022089202460D461698FCF7CCF974
:103FE000039104902B46089A17991698FCF7B6F996
:103FF00032463B46FCF7C0F9039B049AFCF70AF9EA
:104000000B910E9032463B4629460898FCF7B4F9CE
:1040100006460F460B9B0E9AFCF7FCF8704A0D46BD
:10402000914220DB5242AA18024310D132463B464D
:10403000FCF794F9029100906A4A6B4B0B990E9829
:10404000FCF7E8F8029B009AFCF7F2FB2BD2022067
:10405000FEF792FDFEF76CFD49004908E20FD2071A
:10406000114319B0F0BD6A00604B52089A421AD34E
:104070005F4AAA1802430CD102E0114319B0F0BD07
:1040800032463B46FCF76AF90B9B0E9AFCF7D0FBD5
:1040900009D80220FEF770FDFEF754FD49004908DB
:1040A000E20FD207E9E76A0000235208514903935F
:1040B000100D514B40189A4223DD01221205401C7D
:1040C000C24050194200520D51184C4A7A441268AD
:1040D000034694464A4ACA40934302030120120B06
:1040E000000510181422511AC8400390002D01DA5F
:1040F00040420390624630463946FCF72FF90646A7
:104100000F4632463B460B990E98FCF783F8002089
:104110000D4602463B4B0490FCF72EF901910A90A4
:10412000394A3A4B29460498FCF726F90D91089034
:1041300032463B4629460498FCF710F90B9B0E9A31
:10414000FCF712F9324A334BFCF716F90D9B089A2B
:10415000FCF760F807460B460246079101990A985A
:10416000FCF758F805460E46019B0A9AFCF7F6F84C
:104170003A46079BFCF7F8F833462A460B910E9017
:1041800019461046FCF7F8F80746024622480B4647
:10419000079105217844FEF75FFC3A46079BFCF740
:1041A000EBF833462A46FCF7DFF80746099131461B
:1041B000284633E0B2080000DC0700000000084099
:1041C00009C7EE3FFD033ADCF5015B14E02F3EBE6C
:1041D000B2060000780600000000F03F0000F0BFCB
:1041E00000009040FE822B654715973C00CC904024
:1041F00000346F3F01FCFFFF0000E03FA00500001E
:10420000FFFF0F00432EE63F396CA80C615C20BE17
:10421000EF39FAFE422EE63FB00400000B9B0E9AE7
:10422000FCF7AAF80B9B0E9AFBF7F4FF049001230E
:10423000079100229B0738460999FCF78FF80191F6
:1042400008903A4631462846099BFCF795F8019BB1
:10425000089AFCF7F9F8079B049AFCF77FF83346B5
:104260002A46FCF77BF80022124BFCF77DF8064645
:1042700003980D46000541190915002911DC304647
:104280002946039AFCF79DFAFEF7D0FB042801D1DA
:10429000FEF758FC30462946039AFCF792FA064688
:1042A00000E029180B46324621460C98FCF764F8CA
:1042B00019B0F0BD0000F03FF0B5FF230025312715
:1042C0000FE0445D634008241E0602D55B007B407E
:1042D00000E05B00641E2406DBB2240EF4D16D1CEA
:1042E000EDB28D42EDD3934201D00120F0BD00200C
:1042F000F0BD0000F8B506460C46FCF7D0FA050004
:104300000F4600D00120014349000B484908411ADB
:10431000C90F0DD0002E01D0012100E000210C4377
:1043200061004908401AC00F02D10120FEF724FCA9
:1043300028463946F8BD00000000F07F48656C6CE7
:104340006F2C20746869732069732055534152544F
:104350002054782F527820696E746572727570746B
:10436000206578616D706C652E20506C6561736599
:1043700020656E74657220313520636861726163F7
:10438000746572732E2E2E0D0A00000002020201C7
:10439000010100400080020000000B4000200B40A3
:1043A00000400B4000000000000000000000000082
:1043B0000000000000000000002F000000000700C7
:1043C000070000147F147F1400242A7F2A12006241
:1043D00064081323003649552250000005030000ED
:1043E00000001C224100000041221C000014083E75
:1043F00008140008083E0808000000A0600000083B
:10440000080808080000606000000020100804028E
:10441000003E5149453E0000427F4000004261514C
:104420004946002141454B31001814127F100027E6
:1044300045454539003C4A494930000171090503A9
:1044400000364949493600064949291E00003636DA
:10445000000000005636000000081422410000143D
:10446000141414140000412214080002015109061A
:1044700000324959513E007C1211127C007F49499B
:104480004936003E41414122007F4141221C007FCC
:1044900049494941007F09090901003E4149497ADA
:1044A000007F0808087F0000417F41000020404154
:1044B0003F01007F08142241007F40404040007FC0
:1044C000020C027F007F0408107F003E4141413E04
:1044D000007F09090906003E4151215E007F09194C
:1044E00029460046494949310001017F0101003F49
:1044F0004040403F001F2040201F003F4038403FC9
:10450000006314081463000708700807006151492C
:10451000454300007F41410000552A552A550000BF
:1045200041417F000004020102040040404040403D
:10453000000001020400002054545478007F4844D5
:10454000443800384444442000384444487F00380C
:104550005454541800087E0901020018A4A4A47C35
:10456000007F080404780000447D400000408084FF
:104570007D00007F102844000000417F4000007C47
:1045800004180478007C0804047800384444443853
:1045900000FC242424180018242418FC007C08049F
:1045A000040800485454542000043F444020003C78
:1045B0004040207C001C2040201C003C4030403CFF
:1045C000004428102844001CA0A0A07C004464548F
:1045D0004C441414141414143443101001344310B4
:1045E0001001000000000000000000000000F03F8B
:1045F000000000000000F83F000000000000000084
:104600000000004003B8E23F00000000000000008E
:1046100006D0CF43EBFD4C3E033333333333E33F1C
:10462000FFAB6FDBB66DDB3F4D268F515555D53F48
:1046300001411DA96074D13F65DBC9934A86CD3F16
:10464000EF4E454A287ECA3F3E5555555555C53F04
:1046500093BDBE166CC166BF2CDE25AF6A56113FF6
:10466000F16BD2C541BDBBBED0A4BE726937663EF8
:10467000000000000000000098460000000000203C
:10468000DC000000582B000074470000DC00002014
:10469000B4040000682B00000000000000000000CF
:1046A000000000000000000000000000000000000A
:1046B00000000000000000000000000000000000FA
:1046C000414243444500000000000000000000009B
:1046D00000000000000000000000000000000000DA
:1046E00000000000000000000000000000000000CA
:1046F00000000000000000000000000000000000BA
:1047000000000000000000000000000000000000A9
:104710000000000000000000000000000000000099
:104720000000000000000000000000000000000089
:104730000000000000000000000000000000000079
:10474000000000000000000000000000006CDC021F
:104750000000000000000000000000000000000059
:104760000000000000000000000000000000000049
:044770000000000045
:04000005000000C136
:00000001FF
